:020000040800F2
:1000000000000220CD5D0008195D00081F5D00089A
:10001000255D00082B5D0008315D00080000000030
:10002000000000000000000000000000375D000834
:10003000455D000800000000535D0008615D000898
:100040001D5E00081D5E00081D5E00081D5E0008A4
:100050001D5E00081D5E00081D5E00086D5D000845
:100060001D5E00081D5E00081D5E00081D5E000884
:100070001D5E00081D5E00081D5E00081D5E000874
:100080001D5E00081D5E00081D5E000800000000E7
:100090000000000000000000000000001D5E0008DD
:1000A0001D5E00081D5E00081D5E00081D5E000844
:1000B0001D5E00081D5E00087D5D00081D5E0008D5
:1000C0001D5E00081D5E00081D5E00081D5E000824
:1000D0001D5E00081D5E00081D5E00080000000097
:1000E000915D00081D5E00081D5E00080000000014
:1000F0000000000000000000000000001D5E00087D
:10010000000000001D5E00081D5E00081D5E000866
:1001100000000000000000000000000000000000DF
:100120001D5E00081D5E00081D5E00081D5E0008C3
:100130001D5E00080000000000000000000000003C
:100140000000000000000000000000001D5E00082C
:100150001D5E00081D5E00081D5E00081D5E000893
:100160001D5E00081D5E0008000000000000000089
:10017000000000000000000000000000000000007F
:10018000000000001D5E00080000000000000000EC
:080190001D5E00081D5E000861
:1001980010B5054C237833B9044B13B10448AFF3B9
:1001A80000800123237010BD5400002000000000CF
:1001B8007492000808B5034B1BB103490348AFF319
:1001C800008008BD0000000058000020749200085C
:1001D8007BB972B90029BEBF00204FF0004106E08C
:1001E80008BF00281CBF6FF000414FF0FF3000F03F
:1001F800BFB9ADF1080C6DE904CE002909DB002B6D
:100208001ADB00F04DF8DDF804E0DDE9022304B064
:100218007047404261EB4101002B1BDB00F040F8C6
:10022800DDF804E0DDE9022304B0404261EB41015E
:10023800524263EB43037047524263EB430300F0BF
:100248002FF8DDF804E0DDE9022304B0404261EB59
:1002580041017047524263EB430300F021F8DDF897
:1002680004E0DDE9022304B0524263EB4303704724
:1002780053B94AB9002908BF00281CBF4FF0FF3105
:100288004FF0FF3000F074B9ADF1080C6DE904CE01
:1002980000F006F8DDF804E0DDE9022304B0704759
:1002A8002DE9F047089D04468E46002B4DD18A4221
:1002B800944669D9B2FA82F252B101FA02F3C2F154
:1002C800200120FA01F10CFA02FC41EA030E9440E5
:1002D8004FEA1C48210CBEFBF8F61FFA8CF708FB06
:1002E80016E341EA034306FB07F199420AD91CEBDE
:1002F800030306F1FF3080F01F81994240F21C8110
:10030800023E63445B1AA4B2B3FBF8F008FB103357
:1003180044EA034400FB07F7A7420AD91CEB04048C
:1003280000F1FF3380F00A81A74240F2078164445C
:10033800023840EA0640E41B00261DB1D4400023E1
:10034800C5E900433146BDE8F0878B4209D9002D45
:1003580000F0EF800026C5E9000130463146BDE8CF
:10036800F087B3FA83F6002E4AD18B4202D3824239
:1003780000F2F980841A61EB030301209E46002DE8
:10038800E0D0C5E9004EDDE702B9FFDEB2FA82F23D
:10039800002A40F09280A1EB0C014FEA1C471FFA9B
:1003A8008CFE0126200CB1FBF7F307FB131140EA82
:1003B80001410EFB03F0884208D91CEB010103F14F
:1003C800FF3802D2884200F2CB804346091AA4B211
:1003D800B1FBF7F007FB101144EA01440EFB00FEE5
:1003E800A64508D91CEB040400F1FF3102D2A6454A
:1003F80000F2BB800846A4EB0E0440EA03409CE7E9
:10040800C6F12007B34022FA07FC4CEA030C20FA95
:1004180007F401FA06F31C43F9404FEA1C4900FAB5
:1004280006F3B1FBF9F8200C1FFA8CFE09FB181132
:1004380040EA014108FB0EF0884202FA06F20BD9A5
:100448001CEB010108F1FF3A80F08880884240F2F5
:100458008580A8F102086144091AA4B2B1FBF9F039
:1004680009FB101144EA014100FB0EFE8E4508D934
:100478001CEB010100F1FF346CD28E456AD90238B9
:10048800614440EA0840A0FB0294A1EB0E01A1429E
:10049800C846A64656D353D05DB1B3EB080261EB0C
:1004A8000E0101FA07F722FA06F3F1401F43C5E9E6
:1004B800007100263146BDE8F087C2F12003D8401C
:1004C8000CFA02FC21FA03F3914001434FEA1C475E
:1004D8001FFA8CFEB3FBF7F007FB10360B0C43EA50
:1004E800064300FB0EF69E4204FA02F408D91CEB00
:1004F800030300F1FF382FD29E422DD902386344FE
:100508009B1B89B2B3FBF7F607FB163341EA03419D
:1005180006FB0EF38B4208D91CEB010106F1FF38EC
:1005280016D28B4214D9023E6144C91A46EA0046E3
:1005380038E72E46284605E70646E3E61846F8E675
:100548004B45A9D2B9EB020864EB0C0E0138A3E7BE
:100558004646EAE7204694E74046D1E7D0467BE79F
:10056800023B614432E7304609E76444023842E717
:10057800704700BF80B483B000AF00237B6021E0E8
:10058800374A7B6852F823301A0635497B6851F898
:1005980023301B0203F47F031A4331497B6851F867
:1005A80023301B0A03F47F431A432D497B6851F813
:1005B80023301B0E1A432A497B6841F823207B68A5
:1005C80001337B607B68032BDADD254BDB683B60FE
:1005D8003CE07B6803F00303002B27D13B681B0C2E
:1005E800DBB21A461F4B9B5C1A063B681B0ADBB240
:1005F80019461C4B5B5C1B045A403B68DBB219462E
:10060800184B5B5C1B0253403A68120E15498A5C12
:1006180053401A467B68043B002B00DA03339B10D7
:100628001946114B53F8213053403B607B68043B1B
:100638000B4A52F823303A6853403B6008497B68BC
:100648003A6841F823207B6801337B607B682B2B59
:10065800BFDD00BF00BF0C37BD465DF8047B7047A7
:1006680080000020C49600089C96000880B58CB0D5
:1006780000AF03463960FB711346BB80FFF77AFF72
:10068800FB7903F00803002B10D05A4B0022DA60E4
:10069800584BDB68574A9360564B9B68554A5360E2
:1006A800544B5B68534A136000F0A3BC514B1B6862
:1006B8001A06504B1B681B0203F47F031A434D4B69
:1006C8001B681B0A03F47F431A434A4B1B681B0E23
:1006D8001343484A1360474B5B681A06454B5B68EF
:1006E8001B0203F47F031A43424B5B681B0A03F4A3
:1006F8007F431A433F4B5B681B0E13433D4A5360CD
:100708003C4B9B681A063B4B9B681B0203F47F0318
:100718001A43384B9B681B0A03F47F431A43354B33
:100728009B681B0E1343334A9360324BDB681A06EF
:10073800304BDB681B0203F47F031A432D4BDB6845
:100748001B0A03F47F431A432A4BDB681B0E13432F
:10075800284AD36000F04DBCFB7903F00403002B5A
:1007680009D1FB7903F00203002B11D0FB7903F0C8
:100778000803002B0CD11F4B1B68FB621D4B5B68E9
:10078800BB621C4B9B687B621A4BDB683B6262E076
:10079800FB7903F00203002B16D0BB88102B13D86B
:1007A80000233B623B6A7B627B6ABB62BB6AFB627B
:1007B800BB88102B01D1102200E0202297F90730C6
:1007C80013435BB2FB7146E000BF0023FB6126E0E8
:1007D800BB691A02BB88F969994204D23968FB6976
:1007E8000B441B7809E0BB88F969994204D180233E
:1007F80003E000BF7000002000231343BB61FB69C6
:1008080003F00303032B07D1BB6AFB627B6ABB625D
:100818003B6A7B62BB693B62FB690133FB61FB6935
:100828000F2BD5D9FB7903F00203002B13D0A04B73
:100838001B68FA6A5340FB629D4B5B68BA6A534077
:10084800BB629B4B9B687A6A53407B62984BDB6820
:100858003A6A53403B62974B7B617B6980333B61CB
:100868007B691B68FA6A5340FB627B6904331B6827
:10087800BA6A5340BB627B6908331B687A6A534083
:100888007B627B690C331B683A6A53403B627B6925
:100898005B69BB617B699B69FB607B69DB69BB60EA
:1008A8007B691B69FB61FB6ADBB21A46824B53F812
:1008B8002230BA695340BB61FB6A1B0ADBB21A4695
:1008C8007E4B53F82230FA685340FB60FB6A1B0CDE
:1008D800DBB21A467A4B53F82230BA685340BB60F1
:1008E800FB6A1B0E774A52F82330FA695340FB61C2
:1008F800BB6ADBB21A46704B53F82230FA68534091
:10090800FB60BB6A1B0ADBB21A466C4B53F82230F9
:10091800BA685340BB60BB6A1B0CDBB21A46684B13
:1009280053F82230FA695340FB61BB6A1B0E654AD3
:1009380052F82330BA695340BB617B6ADBB21A466E
:100948005D4B53F82230BA685340BB607B6A1B0A80
:10095800DBB21A46594B53F82230FA695340FB610F
:100968007B6A1B0CDBB21A46554B53F82230BA6926
:100978005340BB617B6A1B0E524A52F82330FA6817
:100988005340FB603B6ADBB21A464B4B53F82230AC
:10099800FA695340FB613B6A1B0ADBB21A46474BB4
:1009A80053F82230BA695340BB613B6A1B0CDBB277
:1009B8001A46434B53F82230FA685340FB603B6AAF
:1009C8001B0E404A52F82330BA685340BB607B691B
:1009D8005B6ABB627B699B6A7B627B69DB6A3B62A1
:1009E8007B691B6AFB62FB69DBB21A46324B53F820
:1009F8002230BA6A5340BB62FB691B0ADBB21A4653
:100A08002E4B53F822307A6A53407B62FB691B0CE9
:100A1800DBB21A462A4B53F822303A6A53403B62FB
:100A2800FB691B0E274A52F82330FA6A5340FB62CF
:100A3800BB69DBB21A46204B53F822307A6A53401E
:100A48007B62BB691B0ADBB21A461C4B53F8223087
:100A58003A6A53403B62BB691B0CDBB21A46184B1F
:100A680053F82230FA6A5340FB62BB691B0E154AE1
:100A780052F82330BA6A5340BB62FB68DBB21A46AD
:100A88000D4B53F822303A6A53403B62FB681B0A0D
:100A9800DBB21A46094B53F82230FA6A5340FB621C
:100AA800FB681B0CDBB21A46054B53F822300BE0EF
:100AB8007000002080000020C4A30008C49F000824
:100AC800C49B0008C4970008BA6A5340BB62FB681D
:100AD8001B0EA24A52F823307A6A53407B62BB68E5
:100AE800DBB21A469E4B53F82230FA6A5340FB6237
:100AF800BB681B0ADBB21A469A4B53F82230BA6A13
:100B08005340BB62BB681B0CDBB21A46964B53F8CA
:100B180022307A6A53407B62BB681B0E8F4A52F8B8
:100B280023303A6A53403B627B6920337B617A69A0
:100B38003B699A42FFF4ABAE7B695B69BB617B6939
:100B48009B69FB607B69DB69BB607B691B69FB6137
:100B5800FB6ADBB21A46824B53F82230BA6953401B
:100B6800BB61FB6A1B0ADBB21A467E4B53F8223084
:100B7800FA685340FB60FB6A1B0CDBB21A467A4BDF
:100B880053F82230BA685340BB60FB6A1B0E734AA5
:100B980052F82330FA695340FB61BB6ADBB21A464C
:100BA8006F4B53F82230FA685340FB60BB6A1B0A4C
:100BB800DBB21A466B4B53F82230BA685340BB601D
:100BC800BB6A1B0CDBB21A46674B53F82230FA6932
:100BD8005340FB61BB6A1B0E604A52F82330BA6966
:100BE8005340BB617B6ADBB21A465D4B53F8223037
:100BF800BA685340BB607B6A1B0ADBB21A46594B82
:100C080053F82230FA695340FB617B6A1B0CDBB254
:100C18001A46554B53F82230BA695340BB617B6A78
:100C28001B0E4E4A52F82330FA685340FB603B6A69
:100C3800DBB21A464A4B53F82230FA695340FB613B
:100C48003B6A1B0ADBB21A46464B53F82230BA6994
:100C58005340BB613B6A1B0CDBB21A46424B53F84C
:100C68002230FA685340FB603B6A1B0E3B4A52F83D
:100C78002330BA685340BB607B691B6AFB62FB691F
:100C88001B0E3A4AD35C1B061A46FB6A5340FB62AA
:100C9800BB691B0CDBB21A46344B9B5C1B041A461F
:100CA800FB6A5340FB62FB681B0ADBB21A462F4BF8
:100CB8009B5C1B021A46FB6A5340FB62BB68DBB2B3
:100CC8001A462A4B9B5C1A46FB6A5340FB627B69B7
:100CD8005B6ABB62BB691B0E244AD35C1B061A46BF
:100CE800BB6A5340BB62FB681B0CDBB21A461F4B46
:100CF8009B5C1B041A46BB6A5340BB62BB681B0A59
:100D0800DBB21A46194B9B5C1B021A46BB6A53405E
:100D1800BB62FB69DBB21A46144B9B5C1A46BB6A82
:100D28005340BB627B699B6A7B62FB681B0E0F4A60
:100D3800D35C1B061A467B6A53407B62BB681B0C5C
:100D4800DBB21A46094B9B5C1B041A467B6A53406C
:100D58007B62FB691B0ADBB21A4609E0C4970008EC
:100D6800C4A30008C49F0008C49B0008C4960008D8
:100D7800664B9B5C1B021A467B6A53407B62BB69CD
:100D8800DBB21A46614B9B5C1A467B6A53407B6216
:100D98007B69DB6A3B62BB681B0E5C4AD35C1B0643
:100DA8001A463B6A53403B62FB691B0CDBB21A468E
:100DB800564B9B5C1B041A463B6A53403B62BB691B
:100DC8001B0ADBB21A46514B9B5C1B021A463B6A54
:100DD80053403B62FB68DBB21A464C4B9B5C1A469D
:100DE8003B6A53403B62FB7903F00203002B56D069
:100DF800FB791B1103F00303BB61BB69002B41D0D6
:100E0800FB6ADB0FFB61FB6A5A00BB6ADB0F13430B
:100E1800FB62BB6A5A007B6ADB0F1343BB627B6AC7
:100E28005A003B6ADB0F13437B623B6A5B003B6201
:100E3800FB69002B03D03B6A83F087033B62BB69E5
:100E4800013BBB61BB69002BDAD1314B1A68FB6AE5
:100E580053402F4A13602E4B5A68BB6A53402C4AA2
:100E680053602B4B9A687B6A5340294A9360284BFE
:100E7800DA683B6A5340264AD360FB7923F0300393
:100E8800FB71A2E4224AFB6A1360214ABB6A5360E1
:100E98001F4A7B6A93601E4A3B6AD36095E0FB79E0
:100EA80003F00403002B35D0BB88102B28BF102378
:100EB8009BB2FB610023BB611DE03A68BB69134428
:100EC8001978FB6A1B0EDAB23868BB6903444A40DA
:100ED800D2B21A70FB6A1B02FB62BB6903F0030300
:100EE800032B05D1BB6AFB627B6ABB623B6A7B62F0
:100EF800BB690133BB61BA69FB699A42DDD3044B14
:100F0800DB680133024AD3605FE000BFC496000883
:100F180070000020FB6A1B0EDAB23B681A70FB6A8D
:100F28001A0C3B680133D2B21A70FB6A1A0A3B6882
:100F38000233D2B21A703B680333FA6AD2B21A701B
:100F4800BB6A1A0E3B680433D2B21A70BB6A1A0C19
:100F58003B680533D2B21A70BB6A1A0A3B6806337B
:100F6800D2B21A703B680733BA6AD2B21A707B6A77
:100F78001A0E3B680833D2B21A707B6A1A0C3B68A7
:100F88000933D2B21A707B6A1A0A3B680A33D2B2A2
:100F98001A703B680B337A6AD2B21A703B6A1A0E1F
:100FA8003B680C33D2B21A703B6A1A0C3B680D339B
:100FB800D2B21A703B6A1A0A3B680E33D2B21A7060
:100FC8003B680F333A6AD2B21A70FB7903F0020316
:100FD800002B04D0FB7903F00803002B05D03B68F5
:100FE80010333B60BB88103BBB80FB7943F00803A0
:100FF800FB71BB885BB2002B3FF7AEAB024B1B68A3
:1010080018463037BD4680BD7000002080B500AF5F
:10101800002000F007F8024800F067F800BF80BD24
:101028008C92000880B582B000AF78607B68DBB234
:101038001A464FF40051034805F03AFB00BF083741
:10104800BD4680BD0008024080B584B000AF0346AD
:10105800FB7100233B73FB793B7307F10C014FF0E5
:10106800FF330122034807F00DFD00BF1037BD46CE
:1010780080BD00BF8403002080B582B000AF034666
:10108800FB71FB791B09DBB21A46084B9B5C1846BF
:10109800FFF7DAFFFB7903F00F03044AD35C184625
:1010A800FFF7D2FF00BF0837BD4680BDBC920008DD
:1010B80080B584B000AF78601823FB730CE097F913
:1010C8000F307A6822FA03F3DBB21846FFF7D4FF31
:1010D800FB7B083BDBB2FB7397F90F30002BEEDA92
:1010E80000BF00BF1037BD4680BD80B582B000AFDD
:1010F800786006E07B685A1C7A601B781846FFF710
:10110800A3FF7B681B78002BF4D100BF00BF083712
:10111800BD4680BD80B582B000AF78603960786820
:10112800FFF7E3FF3868FFF7C3FF0D20FFF78CFFD9
:101138000A20FFF789FF00BF0837BD4680BD0000C1
:1011480080B582B000AF78607B68112B04D8094A5B
:101158007B6852F8233000E0074B1846FFF7C5FFBD
:101168000D20FFF771FF0A20FFF76EFF00BF083759
:10117800BD4680BD00000020D092000880B400AFBA
:1011880000BFBD465DF8047B704780B483B000AFF4
:101198000346FB7100BF0C37BD465DF8047B704702
:1011A80080B582B000AF0346FB71FB791A46012176
:1011B800034805F07DFA00BF0837BD4680BD00BF73
:1011C8000004024080B58CB000AF0346FB71FB7988
:1011D800002B02D0FB79012B12D10423FB610123E0
:1011E8003B620023BB6207F11C0319460D4804F05B
:1011F800C5FFFB791A4604210A4805F059FA0CE0A4
:101208000423BB600023FB6000233B6107F1080354
:101218001946044804F0B2FF00BF00BF3037BD468E
:1012280080BD00BF0000024080B582B000AF034619
:10123800FB80FB88022B02D1002004F087FBFB888F
:10124800B3F5806F02D1012004F080FBFB88B3F571
:10125800006F02D1022004F079FB00BF0837BD46B9
:1012680080BD80B400AF00BFBD465DF8047B704709
:1012780080B586B002AF0346FB7100233B730023A1
:101288003B72FB793B7307F1080207F10C014FF041
:10129800FF3300930123044806F0A0F93B7A18466F
:1012A8001037BD4680BD00BFE402002080B400AF07
:1012B80000BFBD465DF8047B7047000080B582B072
:1012C80000AF00F0B1F8134B5B687B60124B1B68F2
:1012D8005B6A7B80104B1B681B6903F00203022BBF
:1012E8000DD10D4B1B68DB6803F00203022B06D1FE
:1012F800094B1B685B6A7B807B6801337B6000F06D
:10130800A3F87B681A047B88134318460837BD4640
:1013180080BD00BF300100203C03002080B584B0B0
:1013280000AF7860FFF7CAFFF8607A68FB68D31AE5
:10133800BB60BB68002B01DC002308E0BB681B1402
:10134800002B02D04FF6FF7301E0BB689BB2184632
:101358001037BD4680BD80B582B000AF786000BF51
:101368007868FFF7DBFF0346002BF9D100BF00BF09
:101378000837BD4680BD000080B584B000AF7860F6
:101388001B4B1B681A691A4B1B6822F002021A6170
:101398007868FFF7C3FF0346FB81FB89042B09D854
:1013A800134B1B68DA68124B1B6822F00202DA60E2
:1013B800012318E00E4B1B68596AFA890C4B1B680D
:1013C8000A445A630A4B1B68DA68094B1B6842F0E7
:1013D8000202DA60064B1B681A6A054B1B6842F06A
:1013E80001021A62002318461037BD4680BD00BFAF
:1013F8003C03002080B483B000AF78607B681A6833
:10140800074B1B689A4204D1064B5B680133054AB7
:10141800536000BF0C37BD465DF8047B704700BFC2
:101428003C0300203001002080B400AF72B600BF3A
:10143800044B1B680133034A136000BFBD465DF8C7
:10144800047B70473001002080B400AF074B1B6855
:10145800013B064A1360054B1B68002B01D162B69D
:1014680000BF00BFBD465DF8047B70473001002017
:1014780080B400AF30BF00BFBD465DF8047B704745
:1014880080B500AF08220021074807F0E7FEFFF704
:10149800CBFFFFF773FEFFF7E4FEFFF707FFFFF749
:1014A800D3FF00BF80BD00BF3001002080B500AF72
:1014B800FFF7BAFFFFF7DCFFFEE780B483B000AFA9
:1014C8000346FB80FB88DBB203F00703DBB2184658
:1014D8000C37BD465DF8047B704780B483B000AF1D
:1014E8000346FB80FB88DB089BB2DBB203F00303F7
:1014F800DBB218460C37BD465DF8047B704780B4F4
:1015080083B000AF0346FB80FB885B099BB2DBB26C
:1015180003F00303DBB218460C37BD465DF8047BC5
:10152800704780B483B000AF03460A46FB80134679
:101538007B71B7F9063023F060031AB27B795B013F
:101548001BB213431BB29BB218460C37BD465DF85D
:10155800047B704780B483B000AF0346FB80FB88F0
:10156800DB099BB203F0010318460C37BD465DF852
:10157800047B704780B483B000AF03463960FB80BA
:10158800B7F9063023F080031AB23B68DB011BB2BF
:1015980013431BB29BB218460C37BD465DF8047B5B
:1015A800704780B483B000AF0346FB80FB881B0AFA
:1015B8009BB2DBB218460C37BD465DF8047B70471A
:1015C80080B483B000AF03463960FB80B7F90630BA
:1015D800DBB21AB23B681B021BB213431BB29BB2AD
:1015E80018460C37BD465DF8047B704780B483B05D
:1015F80000AF0346FB71FB790133044AD35C9BB20D
:1016080018460C37BD465DF8047B7047C4A7000830
:1016180080B582B000AF0346FB71FB791846FFF72F
:10162800E5FF034601211846FFF7A4FF03461846C5
:101638000837BD4680BD000080B483B000AF0346C4
:10164800FB71FB79074AD35CFF2B03D0FB79013B85
:10165800DBB200E0FB7918460C37BD465DF8047B29
:10166800704700BFC4A7000880B483B000AF03462A
:10167800FB71FB790133064AD35CFF2B14BF0123AE
:101688000023DBB218460C37BD465DF8047B704773
:10169800C4A7000880B582B000AF03460A46FB71B4
:1016A8001346BB7105E0FB791846FFF7C5FF0346F3
:1016B800FB71BB795A1EBA71002BF4D1FB7918461D
:1016C8000837BD4680BD80B483B000AF78607B68C2
:1016D8001B781AB27B6801331B781B021BB21343B9
:1016E8001BB29BB218460C37BD465DF8047B7047A9
:1016F80080B483B000AF78607B681B781A467B683B
:1017080001331B781B0213431A467B6802331B788C
:101718001B041A437B6803331B781B0613431846C4
:101728000C37BD465DF8047B704780B483B000AFCA
:1017380078607B6803331B781A467B6802331B7812
:101748001B0213431A467B6801331B781B041A4398
:101758007B681B781B06134318460C37BD465DF89B
:10176800047B704780B483B000AF78600B467B8001
:101778007B88DAB27B681A707B881B0A9AB27B680E
:101788000133D2B21A7000BF0C37BD465DF8047B36
:10179800704780B483B000AF786039603B68DAB2D4
:1017A8007B681A703B681A0A7B680133D2B21A70D8
:1017B8003B681A0C7B680233D2B21A703B681A0E67
:1017C8007B680333D2B21A7000BF0C37BD465DF890
:1017D800047B704780B483B000AF786039607B6861
:1017E80003333A68D2B21A703B681A0A7B6802332C
:1017F800D2B21A703B681A0C7B680133D2B21A70E5
:101808003B681B0EDAB27B681A7000BF0C37BD4606
:101818005DF8047B704780B400AFFF231846BD46CF
:101828005DF8047B704780B487B000AF786039609A
:101838000023FB8241F22103BB8100233B6126E0A8
:101848007A683B6913441B781B021AB2B7F9163041
:1018580053401BB2FB820823FB7312E0B7F9163022
:10186800002B08DAFB8A5B001AB2B7F90C30534038
:101878001BB2FB8202E0FB8A5B00FB82FB7B013B25
:10188800FB73FB7B002BE9D13B6901333B613A6970
:101898003B689A42D4D3FB8A18461C37BD465DF88C
:1018A800047B704780B584B000AFF860B9607A6097
:1018B8003B6010220021104807F0D0FC0E4B492253
:1018C8001A707B68002B14BF01230023DAB20B4B7C
:1018D8001A700B4B3A68D2B21A700A4BF96818465C
:1018E800FFF757FF084BB9681846FFF752FF00BFCC
:1018F8001037BD4680BD00BF700000207500002075
:101908007F000020760000207A00002090B585B086
:1019180000AFF860B9607A603B607B6A3A687968C2
:10192800B868FFF7BFFF1022F9680D4807F088FC78
:101938007B6A9BB21A46396A0220FEF797FE044674
:101948007B6A3A6A13441846FFF7EFFE03469C4247
:101958000CBF01230023DBB218461437BD4690BDE7
:101968008000002090B585B000AFF860B9607A605B
:101978003B607B6A3A687968B868FFF793FF102282
:10198800F9680B4807F05CFC7B6A3A6AD4187B6AF2
:101998009BB21A46396A0220FEF768FE03461946CA
:1019A8002046FFF717FF00BF1437BD4690BD00BFA4
:1019B8008000002090B583B000AF786039600B4894
:1019C80002F0B0FE3B687A68D4183B689BB21A46AE
:1019D80079680A20FEF74AFE034619462046FFF7B3
:1019E800F9FE00BF0C37BD4690BD00BF8000002047
:1019F80090B583B000AF786039600D4802F092FE70
:101A08003B689BB21A4679680A20FEF72FFE044607
:101A18003B687A6813441846FFF787FE03469C42E2
:101A28000CBF01230023DBB218460C37BD4690BD1E
:101A38008000002080B582B000AF78603960074828
:101A480002F070FE3B689BB21A4679680020FEF7E8
:101A58000DFE00BF0837BD4680BD00BF80000020D6
:101A680080B584B000AFF860B9607A603B60FB690C
:101A7800002B29DD10220021154807F0EFFB154B3C
:101A880001221A70124A1B7813703B68002B14BF8E
:101A980001230023DAB2104B1A70104BB9681846AC
:101AA800FFF777FE0E4B79681846FFF772FE102293
:101AB800F9680C4807F0C4FBFB699BB21A46B96980
:101AC8000420FEF7D3FD00E000BF1037BD4680BDFF
:101AD800700000207F0000207500002076000020A4
:101AE8007A0000208000002080B584B000AFB96083
:101AF8007A603B600346FB8110220021786807F07A
:101B0800ADFB7B6801221A707B6801330622B96835
:101B1800184607F095FB7B680733FA891146184683
:101B2800FFF720FE10227968386807F089FB3B68C8
:101B380002221A70094802F0F5FD10227968002087
:101B4800FEF794FD054802F0EDFD102239680020EB
:101B5800FEF78CFD00BF1037BD4680BD8000002019
:101B680090B583B000AF0346FB80FB881846FFF7AB
:101B7800A4FC03461C46FB881846FFF7AEFC034648
:101B88001946064A23465B00234413440B441B783A
:101B98008D3B18460C37BD4690BD00BFE0A7000836
:101BA80090B587B000AF03460A46FB8013467B71A9
:101BB800FB881846FFF791FC0346FB72FB88184622
:101BC800FFF77BFC0346BB72BB7A002B0CD17B79F9
:101BD8000B334FF47A3202FB03F33C4A82FB0312C5
:101BE8001213DB17D31A6DE0BB7A0633DBB29B0006
:101BF800FB75BB7A042B01D9082300E00023FA7D8A
:101C0800D31A7B727B79DA00FB7DD31A03F11C04AB
:101C1800FB881846FFF79EFC0346002B01D00023E3
:101C280000E010231C44FB881846FFF7BAFC034663
:101C3800002B01D0142300E00023E31A3B613B6929
:101C4800002B15DD7A7A3B6913445A1E7B7A92FB86
:101C5800F3F33B61FB881846FFF751FC03465A1D16
:101C68003B6902FB03F33B613B6908333B6101E0DD
:101C780008233B613B699B0031333B61BA7AFB7AAD
:101C8800D31ADBB20133FB7543F60953FB60FB7DC6
:101C9800042B07D9FB7D043BFA6842FA03F3FB6087
:101CA8000423FB75FB7D3A6902FA03F34FF4FA4209
:101CB80003FB02F2FB68D90F0B445B101A44FB6864
:101CC80092FBF3F318461C37BD4690BD89B5F8144E
:101CD80080B487B000AF03460A46FB711346BB7158
:101CE800FB79002B08D1224BB3F9B4307B61204B30
:101CF800B3F9B6303B6111E01D4BB3F9B4301A4665
:101D0800FB7902FB03F3DB117B61194BB3F9B630A6
:101D18001A46FB7902FB03F3DB113B610523FB73D6
:101D2800134BB3F9B8301A46114B93F8313102FB13
:101D380003F33A6913443B61BB790E4A52F82330E6
:101D48003A6992FBF3F3DBB20533DAB2084B1A7443
:101D5800FB7B083BBA79074951F8222003FB02F2C2
:101D68007B69134418461C37BD465DF8047B7047F1
:101D78003801002004A800082DE9F04F87B000AF13
:101D8800064608463146F9730146B973B97B0029FE
:101D980014D03B490020A1F8B40039490020A1F82B
:101DA800B8003749002081F83101354991F896117A
:101DB80041F00C01C8B2324981F89601422179619B
:101DC800F97B00200C460546204629464FF0000ABC
:101DD8004FF0000B4FEA411B4BEAD06B4FEA401A19
:101DE80050465946021B61EB05034FF000004FF0C7
:101DF8000001990041EA9271900002460B4612EBED
:101E0800040843EB05094FF000024FF000034FEAC6
:101E1800092343EA18634FEA082290469946424646
:101E28004B4640F2E7315118396043F100037B60BB
:101E38004FF47A724FF00003D7E90001FEF7C8F9B2
:101E480002460B467B6992FBF3F3DBB20533DAB249
:101E58000B4B83F889210A4BD3F8903103F57A129A
:101E6800074B93F88931083B796901FB03F3D31ACF
:101E7800034AC2F88C3100BF1C37BD46BDE8F08F5D
:101E88003801002090B585B000AF7860102200219D
:101E98002E4807F0E3F92E4B08220021184607F0D8
:101EA800DDF92C4BD3F8983119462B48FFF771FC14
:101EB8002A4A284BD3F8143119461046FFF769FC13
:101EC800102225490020FEF7D1FB7B685B78FB7365
:101ED8002148FFF7F8FB03461946FB7BC3F10703CC
:101EE80040F6FF7242FA03F30B40BB60194BD3F87C
:101EF80090311946BA6813461B019B1A9B010B4483
:101F080003F5843303F580731A467B685A607B684F
:101F180000229A707B685C68FB7B012202FA03F35B
:101F2800DBB20233DAB27B681B7819461046FFF73A
:101F3800CFFE0346E21A7B689A60064B1A7C7B68E0
:101F4800DA7000BF1437BD4690BD00BF8000002086
:101F5800880200203801002080020020840200202E
:101F680090B585B000AF786039607B689A683B6847
:101F7800D31A002B01DB01233AE07B689B78FB73C3
:101F880097F90F30002B01DA002331E07B685B788A
:101F98001A4601239340BB73FA7BBB7B1344FB7344
:101FA8007B68FA7B9A707B689B785BB2002B01DABE
:101FB80000231DE07B685968FA7B13461B019B1AB6
:101FC8009B04DB11CC18FA7BBB7B1344DBB20233D6
:101FD800DAB27B681B7819461046FFF779FE03468C
:101FE800E21A7B689A60044B1A7C7B68DA70BCE75B
:101FF80018461437BD4690BD3801002090B585B00D
:1020080000AF0346FB7103F07BFC03461B021CB2C6
:1020180003F076FC03461BB223431BB27B817B890A
:10202800FB60FB68B3F5FA4F0BDD7B89114AA2FB15
:102038000312D20A4FF4FA4101FB02F29B1A9BB237
:10204800FB60FB79002B10D07B89DBB2FA79B3FBFC
:10205800F2F101FB02F29B1ADBB21A464FF4FA4383
:1020680002FB03F3FA681344FB60FB681846143755
:10207800BD4690BDD34D621080B582B000AF786088
:102088000B46FB70FB781846FFF7B8FF02467B68E3
:1020980013447B600E4B93F8A330002B06D00C4BF7
:1020A800D3F8A4307A68D31A002B0CDD084A7B6871
:1020B800C2F8A430064BB3F8AC3043F480739AB23C
:1020C800034BA3F8AC2000BF0837BD4680BD00BF56
:1020D8003801002080B483B000AF03460A46FB7184
:1020E8001346BB71044ABB7982F8B03000BF0C3785
:1020F800BD465DF8047B70473801002080B483B08A
:1021080000AF0346FB710B46BB7113467B7197F911
:10211800053013F1800F03D00E4A7B7982F8AF3077
:102128000C4B93F8B030BA799A420CD0094ABB7973
:1021380082F8B030074BB3F8AC3043F400639AB27E
:10214800044BA3F8AC2000BF0C37BD465DF8047BF8
:10215800704700BF3801002080B584B000AF034647
:10216800FB71402200213A4807F078F8202200212C
:10217800384807F073F820220021374807F06EF836
:10218800364B3F22A3F8A020FB79002B01D0002377
:1021980000E00623FB730023BB7314E0FA7BBB7BD0
:1021A8002F4951F822202D49103341F82320BB7BB9
:1021B8002A4A40333F2122F81310BB7B0133BB73FB
:1021C800FB7B0133FB73BB7B052BE7D9234B4FF418
:1021D8007A721A84214B0E2283F8222003F090FB96
:1021E800034603F00F03DAB21C4B83F823201B4B82
:1021F80064221A85194B0E2283F82A2003F080FBEB
:10220800034603F00F03DAB2144B83F82B20134B69
:102218000A221A86114B1B2283F8322003F070FB26
:10222800034603F00F03DAB20C4B83F8332002F0B5
:102238003DFE0346094A5363084B5B6B074AD3626A
:10224800064BDB6A054A536200BF1037BD4680BDA6
:1022580078010020B8010020580100203801002032
:1022680024A8000880B483B000AF396011461A462C
:102278000346FB710B46BB801346BB71FB790F2BE2
:1022880001D9002354E097F90630B3F1FF3F21D17B
:102298003B682A4A934208D93B68294A934204D8A2
:1022A8003B6843F002033B6021E03B68254A9342C8
:1022B80003D93B68244A934207D93B68234A93428F
:1022C80015D33B68224A934211D83B6843F0010377
:1022D8003B600CE097F90630032B01DD002327E073
:1022E8003B6823F0030297F9063013433B60FB7900
:1022F800184910333A6841F82320BB88002B01D0D5
:10230800BA8800E03F22FB791249403321F81320B4
:10231800104BB3F8A0301AB2FB79012101FA03F38C
:102328001BB213431BB29AB20A4BA3F8A020012395
:1023380018460C37BD465DF8047B7047BFFDD133A6
:1023480050CED533FFA0BC33C0C8C533A091D63317
:102358008025DB333801002080B584B000AF786079
:102368007B68013B1846FFF7C3F903461B0A642242
:1023780002FB03F3FB60FB68064A934203D3FB6846
:10238800054A934201D90023FB60FB6818461037C1
:10239800BD4680BDC05570338025DB3380B485B021
:1023A80000AF03460A46FB711346BB80FB79002B3E
:1023B8000AD1BB88002B07D0BA881C4BB3F8A030D1
:1023C800DB431340002B01D0002328E00023FB73DC
:1023D8001DE0BA88FB7B42FA03F303F00103002BEC
:1023E80012D0FB7B114A103352F82330002B0BD14B
:1023F800FB7B012202FA03F31BB2DB431AB2B7F9E3
:10240800043013401BB2BB80FB7B0133FB73FB7BA7
:102418000F2BDED9054ABB88A2F8A0300123184645
:102428001437BD465DF8047B704700BF38010020B3
:1024380080B586B000AF7860214B93F8A230204A6F
:10244800103352F823307B611D4BDB891C4A92F80C
:10245800472111461846FFF7A3FB38617B6903F053
:1024680003030433DB00164A1344FB607B6923F043
:102478000303134A9360FB6893F90220104B9A7484
:10248800FB681B881A463B6903FB02F27B681A4407
:10249800FB685A600A4B93F8A330002B0BD0084B0B
:1024A80093F8A3301A463B6903FA02F27B68134497
:1024B800034AC2F8A43000BF1837BD4680BD00BF2C
:1024C8003801002080B487B000AF78600F23FB7517
:1024D8007A68484B13443B610023FB730023BB73AA
:1024E8001DE0FA7DBB7B42FA03F303F00103002BE6
:1024F80012D0BB7B404A0433DB0013445B683A6963
:10250800D31A002B08DDBB7BFB73FB7B3A4A0433F1
:10251800DB0013445B683B61BB7B0133BB73BB7B54
:10252800032BDED9FB7B344A0433DB001344DB780E
:102538007B7300233B7342E07B7B01337B737B7BA4
:102548000F2B02D97B7B103B7B732B4BB3F8A0304E
:102558001A467B7B42FA03F303F00103002B2BD0CE
:102568007B7B254A403332F813301A46224B93F8C6
:10257800B03003F00F0342FA03F303F00103002B1A
:102588001AD0FA7B7B7B1C49103351F8233003F0B7
:1025980003039A4210D1FA7B1749131DDB000B4441
:1025A800797BD9701449131DDB000B44DA78124B80
:1025B80083F8A2203B6916E03B7B01333B733B7BEE
:1025C8000F2BB9D9FB7B012202FA03F35BB2DB4381
:1025D8005AB297F9173013405BB2FB75FB7D002B9D
:1025E8007FF476AF3B6918461C37BD465DF8047B1F
:1025F800704700BF0020AA443801002080B500AF12
:10260800104B002283F847210E4B93F888310D4A6E
:10261800103352F8233023F003030A4A936003204F
:10262800FEF7F6FF034601211846FEF7A3FF03460F
:1026380011211846FEF7C4FF03461A46014BDA81FA
:1026480000BF80BD3801002098B500AF03F058F9ED
:1026580003461A46154BA3FB021399080B465B0069
:102668000B445B00D31ADAB2114B83F8A220104B4B
:102678000E2283F8AF2005210020FFF72BFD012053
:10268800FFF76AFD0A4BB3F8AC3003F40063002B84
:1026980001D0FEF70BFF064B5C6A0820FFF7AEFC83
:1026A80003462344024A136000BF98BDABAAAAAAF6
:1026B8003801002080B582B000AF0023FB71304B99
:1026C80093F8A2300133DAB22D4B83F8A2202C4BB9
:1026D80093F8A230062B03D1294B002283F8A220BD
:1026E800274B93F844310133DAB2254B83F8442160
:1026F800234B93F8443103F00103002B12D1204BF4
:1027080093F8B030002B02D10123FB710AE01C4B77
:1027180093F8B0301846FEF78FFF0346194601209C
:10272800FFF7D8FC164BB3F8AC3023F400639AB229
:10273800134BA3F8AC2002F0B9FB3860104B5B6A6E
:102748003A68D31A002B02DA0D4B5B6A3B600C4BDC
:1027580093F8B0301A46FF231341DBB21846FFF74F
:102768004DFC034603F5BB3303F580733A68134405
:10277800034A1360FB7918460837BD4680BD00BF81
:102788003801002080B582B000AF786001F0B6FC57
:1027980000BF0837BD4680BD80B582B000AF034694
:1027A800FB71FB79184602F0A1F801F0A7FC00BF05
:1027B8000837BD4680BD80B582B000AF786001F0B3
:1027C8007BFE01F00FFA0C20FFF7E6FF00BF083789
:1027D800BD4680BD80B400AF2F4B0022C3F81C213A
:1027E8002D4BD3F81C312C4AC2F818312A4B002241
:1027F80083F8B220284B002283F82621264B93F831
:102808002621254B83F82521234B93F82521224B9C
:1028180083F82221204B93F822211F4B83F8202193
:102828001D4B002283F829211B4B93F829211A4BB1
:1028380083F82A21184B93F82A21174B83F8302163
:10284800154B93F83021144B83F82821124B0022A2
:1028580083F83321104B002283F8AE200E4BF4226C
:1028680083F821210C4B002283F82B210A4B0B4AB9
:10287800C3F82C21084B052283F88821064B074A08
:10288800C3F84021044B032283F8342100BFBD461E
:102898005DF8047B704700BF3801002008E6D33399
:1028A80090B583B000AF464B93F84731112B01D058
:1028B800FEF7FCFD434B7B607B6807331C780721E0
:1028C8007868FEF7B0FF0346DBB29C4201D00023D4
:1028D80071E07868FEF70CFF034623F07F433B6006
:1028E800374BD3F8A8303A689A4202D04FF0FF33FA
:1028F80061E0334B93F8963123F00303DAB2304B9F
:1029080083F896212E4B93F90D202D4B83F89521B2
:102918002B4B93F90C202A4B83F89421284B5B68A6
:10292800A3F590530C3B264AC2F890317B680333D9
:102938001846FEF7DDFE0346214AC2F89831204BBF
:1029480093F8963143F00103DAB21D4B83F89621D0
:102958007B680F331846FEF7B6FE03461C460F2168
:102968007868FEF760FF03469C4201D0012322E00D
:102978007B6808331846FEF7BBFE03461B12104A55
:10298800C2F8A0317B680B331846FEF7B1FE034648
:102998001B120B4AC2F8A4317B681A7A084B83F8D9
:1029A8009C21074B93F8963143F00203DAB2044BAB
:1029B80083F89621022318460C37BD4690BD00BF08
:1029C800380100208002002090B59BB002AF984BE0
:1029D800BB64BB6C1B7887F8473097F8473023F007
:1029E8001F0387F84630934B93F847313B643B6CA1
:1029F8000B2B0DDD97F8473003F00303002B07D1AD
:102A080097F84630602B14D097F84630A02B10D09A
:102A180000BF08E000BF06E000BF04E000BF02E01E
:102A280000BF00E000BF834B002283F8472100234A
:102A3800F6E2BB6C05331B78FB63BB6C01331846AD
:102A4800FEF756FEB863BB6C06331846FEF73BFE2E
:102A580003467B63FB6B03F00F033B63FB6B5B116C
:102A680003F00103FB623B6B0833FB653B6C043BE3
:102A7800BB62704BD3F81431BA6B9A42CAD1FA6D63
:102A8800BB6A9A42C8DC4FF0FF33BB6500237B6505
:102A9800BA6AFB6D9A4207DDFB6D5A1CFA651A4645
:102AA800BB6C13441B78BB65624BD3F818317A6B47
:102AB80091B2604AD2F8182192B28A1A92B213449B
:102AC8007B635C4BD3F81411BB6A0193BB6C009316
:102AD80001237A6B5848FEF719FF0346002B9DD057
:102AE800544BD3F818317A6B9A4219D2514BD3F818
:102AF80018311A467B6B9A4292DB4E4BD3F8183149
:102B0800013B7A6B9A428DD14A4B93F82031002BC6
:102B180088D097F84630A02B84D101237B650EE03E
:102B28007B6B0133434AC2F8183197F84630A02B23
:102B380001D1202200E000223E4B83F820213D4BAA
:102B480093F82031002B04D1FB6B03F01003002B0A
:102B580008D0384BB3F8AC3043F010039AB2354B79
:102B6800A3F8AC20334B002283F8B220314B93F802
:102B7800B220304B83F822212E4B93F9213113F1E7
:102B8800800F03D02B4BF42283F82121294B93F992
:102B98000C30A3F14004274BDB891846FEF7E0FF11
:102BA8000346E31A7B627B6A002B05DB7B6AFE2BFC
:102BB800A8BFFE23DBB200E000231E4A82F82431BE
:102BC800BB6C08333B6200233B65B4E13B6D3A6A5A
:102BD80013441B78023B102B00F2BA8101A252F871
:102BE80023F000BF312C0008452C0008A32D000855
:102BF8001F2D00080F2D0008F12D0008592F00087F
:102C0800592F0008592F0008592F0008592F00087C
:102C1800592F0008592F0008592F0008592F00086C
:102C28007D2E0008BF2E00083B6D03333B6582E113
:102C380080020020380100202C0200203B6D013367
:102C48003A6A13441B78BB723B6D02333A6A1344E9
:102C58001846FEF738FD03463B813B6D04333A6A5C
:102C680013441B7823F00F03FB713B6D04333A6A5E
:102C780013441B7803F00F03BB713B6D05333B65B1
:102C8800B04B872283F825213A89FB7911461846EB
:102C9800FFF784FB0346002B08D1AA4B93F8253194
:102CA80023F00103DAB2A74B83F82521BB7A1B096D
:102CB8007B717B791846FEF7D7FC0346002B08D1B9
:102CC800A04B93F8253123F00203DAB29D4B83F829
:102CD80025219C4B93F8253103F07F03072B0DD159
:102CE800984ABB7982F8AE30BB7A03F00F03964A54
:102CF800D2567B7919460420FFF700FA914B01223E
:102D080083F8222117E18F4B012283F826213B6D9E
:102D180001333B650FE13B6D01333A6A13441B787D
:102D280003F00F03BB743B6D02333A6A1344184631
:102D3800FFF712FBF8603B6D05333B65814B802242
:102D480083F83021BB7C1846FEF78EFC0346002B27
:102D580008D07C4B93F8303143F00203DAB2794B58
:102D680083F83021FB68002B08D0764B93F830317C
:102D780043F00103DAB2734B83F83021714B93F8B7
:102D88003031832B40F0D7806E4ABB7C82F82B31E0
:102D98006C4AFB68C2F82C31CDE03B6D01333A6ACE
:102DA80013441B78FB723B6D02333B65FB7AFF2BA8
:102DB80008D1644BB3F8AC3043F040039AB2614B8E
:102DC800A3F8AC20FB7A03F00F03DAB25D4B83F86B
:102DD800A32002F06BF803465A4AC2F8A430594BB4
:102DE800012283F82921A6E03B6D01333A6A134496
:102DF8001B78FB763B6D02333A6A13441846FFF79B
:102E0800ABFA78613B6D05333A6A13441B78FB745F
:102E18004C4B802283F82A217B69002B26D0FB7C2F
:102E280003F00F034FF6FF7202FA03F31AB2FB7CAA
:102E38001B09DBB2C3F10F034FF6FF7141FA03F32D
:102E48001BB213401BB29AB2F87E4FF0FF33796978
:102E5800FFF708FA0346002B08D03A4B93F82A31BB
:102E680043F00303DAB2374B83F82A213B6D06336C
:102E78003B6560E03B6D01333A6A13441846FFF73F
:102E88006BFAF8613B6D04333B65802387F84F305C
:102E9800FB69002B09D097F84F3043F0010387F8FE
:102EA8004F30284AFB69C2F84031264A97F84F301C
:102EB80082F833313FE0234BB3F8AC3003F0020320
:102EC800002B34D13B6D03333A6A13441A781D4BF7
:102ED80083F888211B4BB3F8AC3043F002039AB255
:102EE800184BA3F8AC20174B93F83231002B01D1C3
:102EF800FEF7DCFA134B5C683B6D01333A6A134406
:102F08001846FEF7E0FB03461A4613461B019B1AB8
:102F18009B01E2180D4B13440A4AC2F89031094B41
:102F2800002283F8962101211E20FEF725FF3B6D24
:102F380004333B6500BF3A6D3B6B9A42FFF646AEE1
:102F480007E000BF38010020D0A70008E081C1FFDA
:102F580000BF7B6D002B1DD1BB6D002B1ADBBA6A3D
:102F6800FB6DD31A002B15DDBB6D002B01DC2E4841
:102F780000E02E482E4BD3F81441FB6DBA6C134475
:102F8800B96AFA6D8A1A0192009301237A6B214675
:102F9800FEF766FDFB6A002B254B93F84431002BA6
:102FA80010D0234B93F845315BB2FA6A002A02D05D
:102FB8006FF07F0200E0402213435BB2DAB21C4B91
:102FC80083F84521BB6D002B12DA194B93F8453174
:102FD80043F02003DAB2164B83F84521FB6DDAB2D1
:102FE800134B83F84621124B002283F8472116E041
:102FF8000F4B93F8453143F01003DAB20C4B83F8CA
:103008004521FB6DDAB20A4B83F84621BB6ADAB276
:10301800FB6DDBB2D31ADAB2054B83F847210123E3
:1030280018466437BD4690BD2C0200203C020020A3
:103038003801002080B500AF0D4B022283F84521EE
:103048000B4B93F82B311846FEF7E2FA03461A4663
:10305800074BDA81064BD3F82C31054A9360044BB1
:10306800002283F84721022002F046FD00BF80BD00
:103078003801002080B582B000AF786039600E4B0F
:103088001A687B68D1180C4B93F82B311A460B4BF6
:1030980053F8222013465B0013440B44064A53603E
:1030A800054B5B68403B3A681946054801F068FFE4
:1030B80000BF0837BD4680BD3801002004A80008BD
:1030C8004C01002080B582B000AF78600D4B012222
:1030D80083F845210B4BDB8901211846FEF74AFA94
:1030E80003461A46074BDA81064B002283F847212C
:1030F800044A7B68D361022002F0FEFC00BF083757
:10310800BD4680BD3801002080B582B000AF786030
:103118003960224BB3F8AC301A4640F202631340D0
:1031280040F2024293420BD11D48FEF7ABFE1B4B07
:10313800B3F8AC3043F400739AB2184BA3F8AC2040
:10314800164B1B7C072B0AD1144B1A687B68134457
:10315800053B124A5360114B08221A7412E00F4BB8
:103168001A687B68D1180D4B5B7C1A460D4B53F8D7
:10317800222013465B0013440B44084A5360074B54
:1031880005221A74054B5B68403B3A6819460648A5
:1031980001F0F6FE00BF0837BD4680BD38010020AB
:1031A8006C02002004A800084C01002080B582B001
:1031B80000AF78600820FFF7EFFA00BF0837BD4678
:1031C80080BD000080B586B000AF994B93F84531BB
:1031D800012B06D1964B93F84731002B01D1FEF70E
:1031E80065F9934BB3F8AC3003F08003002B01D1A1
:1031F800FEF75CF98E4B93F84731002B4CD100BF9A
:1032080000E000BF8A4BB3F8AC3003F00403002B96
:1032180023D1874BB3F8AC3003F02003002B01D146
:10322800FEF744F9824BB3F8AC3023F0A0039AB20E
:103238007F4BA3F8AC207E4B93F8B230092B07D80C
:103248007B4B93F8B2300133DAB2794B83F8B22072
:103258000920FFF7A1FA0123E6E0754BB3F8AC307B
:1032680023F080039AB2724BA3F8AC20FFF722FA3E
:10327800786001F01BFE02467B68D1187B6803F07A
:103288000103002B01D06B4B00E06B4B1A466B48D7
:1032980001F076FE0123C7E0654B93F848317B7552
:1032A800634B93F84731FB75FB7D043B03F5A4732F
:1032B8005F4A13441846FEF71BFA3861FB7D112B51
:1032C80002D0FB7D212B04D17B7D03F0E303202B6F
:1032D8000BD000BF00E000BF554B93F8453103F019
:1032E8000103002B8DD000239EE0554AFB7D013B56
:1032F80019461046FEF79EFBFB7D043B19465148D4
:10330800FEF776FB0346002BE5D04F4B1846FEF739
:10331800EFF9F860464AFB68C2F814314B48FEF7EB
:10332800E7F9034623F07F43414AC2F8A83000205A
:10333800FEF712FFFB7D112B20D90D23FB7503230C
:10334800BB7518E0FB7D03F5A473394A134418468E
:10335800FFF702F8B860BB68002B06D0B87D4FF0C5
:10336800FF330022B968FEF77DFFBB7D0133BB75D3
:10337800FB7D0333FB75BB7D072BE3D92C4BB3F8DF
:10338800F230013B98B2324B324A2D49FEF7ACFB82
:10339800274BB3F8AC3003F02403002B01D1FEF720
:1033A80085F8234BB3F8AC3003F02003002B0ED084
:1033B8001F4B93F8B0301E4A92F8B22011461846B7
:1033C800FEF768F903461A46194B83F8B020184BE4
:1033D800B3F8AC3023F4297323F002039AB2144BE8
:1033E800A3F8AC20124B002283F84421FFF7F2F92E
:1033F8000F4B93F8533103F00F03DAB20C4B83F8F9
:103408002B210B4B93F85421094B83F82321084BAC
:1034180093F82331002B03D1054B012283F8232194
:103428000620FFF7B9F9012318461837BD4680BDB5
:1034380038010020B53100088D2700084C01002014
:1034480081020020800200208702002084020020E0
:103458003C0200202C02002080B582B000AF7860CA
:10346800074B93F84731002B03D1054B002283F813
:103478004521FFF7A7FE00BF0837BD4680BD00BF46
:103488003801002080B582B000AF7860044B054A4F
:10349800DA61FFF7CFFD00BF0837BD4680BD00BF2A
:1034A800380100206134000880B582B000AF786030
:1034B800084B93F84731002B04D0FFF783FE0346EF
:1034C800002B03D104490548FFF7D4FD00BF083796
:1034D800BD4680BD380100208D34000800EE020092
:1034E80080B582B000AF78600348FFF7EBFD00BFFE
:1034F8000837BD4680BD00BFB134000880B582B032
:1035080000AF786003490448FFF7FEFD00BF0837A5
:10351800BD4680BDE93400080071020080B582B064
:1035280000AF786000F0C6FB00BF0837BD4680BD1D
:1035380090B583B000AF78600F4B93F84731002BFC
:1035480015D10D4B002283F8452101F0AFFC03464D
:1035580003F5BB3404F580740220FEF74FFD0346E3
:103568002344064A1946064801F00AFD01E000F026
:10357800A1FB0C37BD4690BD380100202535000859
:103588004C01002080B582B000AF7860044B054A3A
:10359800DA61FFF74FFD00BF0837BD4680BD00BFA9
:1035A800380100203935000880B582B000AF786056
:1035B8000D4B93F84731002B04D000F07BFB0346FA
:1035C800002B0CD1084B93F8233101331A464FF4E2
:1035D800FA4302FB03F305491846FFF74BFD00BF0A
:1035E8000837BD4680BD00BF380100208D35000872
:1035F80080B582B000AF78600348FFF763FD00BF75
:103608000837BD4680BD00BFB135000880B582B01F
:1036180000AF7860074B93F823311A464FF4FA430A
:1036280002FB03F304491846FFF76EFD00BF083795
:10363800BD4680BD38010020F935000890B587B037
:1036480002AFA34BB3F8AC3003F01803102B14BF30
:1036580001230023DBB2FB73FB7B002B03D09C4BC5
:1036680093F8BC3000E00023BB710823BB60984B83
:10367800B3F8AC301A4640F20243134040F202421B
:1036880093421CD1924ABB68134403F5A4731022D9
:103698001A708F4B93F834315AB28D4B93F83531F9
:1036A8001B015BB213435AB2BB680133D1B2884ADB
:1036B80013440A4683F84821BB680233BB60844B35
:1036C80093F82931002B0DD0814ABB68134403F5C8
:1036D800A47304221A70BB680133BB607C4B0022C0
:1036E80083F829217A4B93F83031002B1AD0784A85
:1036F800BB68134403F5A47305221A70744B93F83E
:103708003021BB68013302F00302D1B2704A13447E
:103718000A4683F84821BB680233BB606C4B002221
:1037280083F830216A4B93F82631002B21D0684A60
:10373800BB68134403F5A47306221A70BB685C1CAB
:10374800FEF769F803461A46614B234483F848217B
:10375800BB6802335E4A92F824115D4A13440A4654
:1037680083F84821BB680333BB60594B002283F8B8
:103778002621574B93F82531002B1AD0544ABB68A1
:10378800134403F5A47303221A70514B93F82521AF
:10379800BB68013302F00702D1B24D4A13440A460E
:1037A80083F84821BB680233BB60494B002283F889
:1037B8002521474B93F83231002B09D0444ABB6886
:1037C800134403F5A47312221A70BB680133BB605B
:1037D8003F4B93F82231002B0CD03D4B93F921310C
:1037E800002B03DA3A4B002283F82121384B0022C0
:1037F80083F82221364B93F83331002B1AD0344A00
:10380800BB68134403F5A47311221A70304B93F864
:103818003321BB68013302F00102D1B22C4A1344B0
:103828000A4683F84821BB680233BB60284B002254
:1038380083F83321264B93F82A31002B1AD0244AD7
:10384800BB68134403F5A47307221A70204B93F83E
:103858002A21BB68013302F00302D1B21C4A134487
:103868000A4683F84821BB680233BB60184B002224
:1038780083F82A21BB68182B01DDFDF717FEFB7BB7
:10388800002B03D0BB790533DBB200E00423BA6810
:10389800D2B21344FB71FB79402B05D90023FB738B
:1038A800BB68DBB20433FB71094B402283F8482123
:1038B800074B93F82021064B93F827311343DBB2CB
:1038C8005BB2034A92F92121002A03DB402202E07D
:1038D80038010020002213435AB2BB68DBB2083B10
:1038E800DBB25BB213435BB2DAB2404B83F84D21D3
:1038F8003F4A3E4BD3F8143119461046FDF749FFAD
:103908003A4B93F84431002B06D1384BD3F81C318D
:103918000133364AC2F81C31364A344BD3F81C31CD
:103928009BB2013B9BB219461046FDF71BFF2F4B7C
:10393800002283F82021FB7B002B3ED02B4B93F8F1
:10394800BB30002B0CD0294B802283F84821274B11
:1039580093F84431002B03D1244B012283F84421EE
:10396800224B93F8BA10214ABB68134403F5A47399
:103978000A461A70BB6801331F4A1344BA791F49B3
:10398800184605F05DFC194B93F8BA30002B01D1AD
:103998001B4800E01B48154BD3F81411134BD3F800
:1039A8001C315C1EBB680133134A1344BA79019277
:1039B800009300232246FEF753F80C4BD3F814115A
:1039C8000A4BD3F81C315A1EFB79043B01930A4B6E
:1039D800009300230A48FDF7C5FF044AFB7982F8E3
:1039E800473100BF1437BD4690BD00BF38010020E5
:1039F800810200208602002080020020F5010020BC
:103A08002C0200203C02002080B582B000AF786014
:103A1800002002F071F8234801F06EFA224B93F867
:103A28004731002B0CD1204BB3F8AC3023F0030303
:103A38009AB21D4BA3F8AC200120FEF7ADFE2DE095
:103A4800FEF72EFF0346002B0FDC174B002283F8EE
:103A58004721032002F050F8134BD3F89031134A52
:103A68001946104801F08CFA18E001210D20FEF7E4
:103A780083F90D4BB3F8AC3023F001039AB20A4B2B
:103A8800A3F8AC20084BB3F8AC3043F002039AB269
:103A9800054BA3F8AC200220FEF77EFE0837BD4692
:103AA80080BD00BF4C01002038010020113A0008F9
:103AB80080B500AF274BD3F81431002B06D0254B27
:103AC800B3F8AC3003F00403002B01D0FDF7EEFC93
:103AD800204BB3F8AC3003F04003002B37D11D4B1B
:103AE800002283F896211B4B93F89621194B83F8F3
:103AF8002021184B93F82021164B83F84421154BAD
:103B0800B3F8AC3043F001039BB223F080039AB2C0
:103B1800104BA3F8AC20FEF771FD01F0C7F903467E
:103B280003F57B1303F574530A4AC2F89031094B25
:103B3800D3F89031074A5360064B5B68064A19462A
:103B4800064801F01DFA032001F0D6FF00E000BF8F
:103B580080BD00BF38010020113A00084C01002048
:103B680080B584B000AF0346FB71164BFB60FB6861
:103B7800FA791A70FB680133184600F0ABFDFB6850
:103B88000933184600F0BAFDFB6811330E4AB2F843
:103B9800F22011461846FDF7E5FD1321F868FDF7F8
:103BA80009FF094B172283F84721074BB3F8F23076
:103BB80001339AB2044BA3F8F22000BF1037BD4678
:103BC80080BD00BF800200203801002080B582B08F
:103BD80000AF78600520FEF7DFFD00BF0837BD465F
:103BE80080BD000080B500AF204BD3F81431002B06
:103BF80038D11E4BB3F8AC3003F09003002B01D042
:103C0800FDF754FC194B002283F8A320174BB3F897
:103C1800AC3023F4C15323F001039AB2134BA3F839
:103C2800AC20124B002283F8BB20104B93F8BB202A
:103C38000E4B83F844210D4B93F844210B4B83F82A
:103C4800B220FEF701FD094BB3F8AC3043F0040392
:103C58009AB2064BA3F8AC200549064801F06AF968
:103C6800012300E00023184680BD00BF3801002072
:103C7800D53B00084C01002080B582B000AF7860C9
:103C88000B4B93F84731002B0CD0094B042283F8D7
:103C98004521FEF799FE0346002B03D00D20FEF7C1
:103CA8007BFD01E000F02AFA0837BD4680BD00BF61
:103CB8003801002080B500AF764BB3F8AC3003F084
:103CC8008003002B01D1FDF7F1FB724B93F84731CC
:103CD800002B40F0CE8000BF00E000BF6D4B93F892
:103CE8004431002B38D06B4B93F84431072B2ED836
:103CF800684B93F844310133DAB2664B83F84421B8
:103D0800644B93F8B030634A92F844211146624AF2
:103D1800525C11461846FDF7BDFC03466FF07F0262
:103D280019460220FEF7EAF95A4B5B680321184648
:103D3800FEF7A2F9574BB3F8AC3023F080039AB2E0
:103D4800544BA3F8AC2000F0D9F901239FE0514B64
:103D5800602283F8452103E04E4B202283F8452159
:103D68004C4B93F9213113F1800F09D0494B93F94A
:103D78002131DBB20133DBB25AB2464B83F8212141
:103D8800444B002283F84721424B93F84721414B8B
:103D980083F8462100E000BF3E4BB3F8AC3023F077
:103DA80088039AB23B4BA3F8AC203A4B93F84531C1
:103DB80003F00703002B12D0364BB3F8AC3003F4F2
:103DC8008053002B0BD0334BB3F8AC3023F4805323
:103DD8009AB2304BA3F8AC200F20FEF7DDFC0A2086
:103DE800FEF7DAFC2B4B93F92131182B1CDD294BFC
:103DF80093F8B0301846FDF71FFC03466FF07F02BA
:103E080019460320FEF77AF9224B0C2283F8212168
:103E1800204BB3F8AC3043F481539AB21D4BA3F84E
:103E2800AC200E20FEF7B8FC1A4B93F83231002B69
:103E38001DD0184BB3F8AC3003F00203002B07D0A9
:103E48000220FEF7A9FC134B002283F832210EE072
:103E5800104B93F83231013BDAB20E4B83F8322122
:103E68000C4B93F83231002B01D1FFF721FE0123CF
:103E78000DE0FEF7A9FD0346002B8CD1054B93F806
:103E8800453103F00103002B3FF427AF0023184608
:103E980080BD00BF38010020F8A7000890B587B0A2
:103EA80000AF7860814BD3F89031FB607F4B93F87B
:103EB8009631FB727D4B93F84731002B00F08780D9
:103EC800FEF7EEFC0346002B40F381800423FB75CC
:103ED800FB7A03F00303002B04D100210D20FDF72A
:103EE8004BFFD2E0FB689AB2704BD3F890319BB28B
:103EF800D31A9BB2A3F500439BB2BB826B4B93F8DA
:103F08003131002B13D0694BB3F9B4309AB2B7F9F9
:103F180014306649B1F9B410591A644B93F8313129
:103F2800013391FBF3F39BB213449BB2BB825F4B0B
:103F380093F8963103F00403002B27D15B4BB3F9B8
:103F4800B4309AB2BB8AD31A9BB27B82B7F91230CB
:103F5800002B03DA7B8A5B429BB27B82534A7B8AC3
:103F6800A2F8B630514BB3F9B830B7F912209A42DB
:103F780003DD4E4A7B8AA2F8B8304C4B93F8963151
:103F880023F00803DAB2494B83F89621474ABB8AE3
:103F9800A2F8B430454B002283F8B220434B93F883
:103FA800B220424B83F83121404B93F8963123F0ED
:103FB8000403DAB23D4B83F896213C4B93F89631D3
:103FC80003F00303002B4CD1FDF770FA49E00323FB
:103FD800FB75364BD3F89021344BB3F9B430C3F5A5
:103FE8007A131344314AC2F89031304BD3F89831E0
:103FF80080332E4AC2F898312C4B93F83131013373
:10400800DAB22A4B83F83121284BD3F8903103F5E3
:10401800843303F5807304211846FEF72DF8234BEB
:1040280093F83131142B08D9204BB3F8AC3043F056
:1040380020039AB21D4BA3F8AC201C4B93F889318E
:10404800642B0FD9194BB3F8AC3023F4C46323F0B5
:1040580002039AB2154BA3F8AC200B20FEF79CFB89
:1040680021E000BF114BD3F8903103F57A140321F6
:104078000020FDF72DFE0346E31A0C4AC2F88C31E6
:104088000A4B1A7C094B83F88921084BB3F8AC30EA
:1040980003F40073002B02D00548FDF7F3FEFB7D07
:1040A8001846FEF779FB1C37BD4690BD3801002045
:1040B8006C02002080B582B000AF7860044B054ADE
:1040C800DA61022001F018FD00BF0837BD4680BD47
:1040D80038010020A53E000880B582B000AF7860A6
:1040E800044B054ADA61022001F006FD00BF0837DB
:1040F800BD4680BD38010020813C000880B586B0EF
:1041080000AF904BB3F8AC3003F0C103002B40F084
:10411800AB818C4BD3F81431002B09D1894BB3F800
:10412800AC3003F00403002B02D1FFF75BFD9EE1E6
:1041380000F0BCFEB86000237B6100233B61814B2B
:10414800B3F8AC3003F00203002B0FD0BB6803F1C7
:1041580040027C4BD3F88C31D31A002B01DDFDF7DC
:10416800A5F9784BD3F88C31403B7B61754BB3F89C
:10417800AC3003F03C03002B00F0F280714BB3F835
:10418800AC3003F02403002B14BF01230023DBB25F
:10419800FB716C4BB3F8AC3003F40063002B12D006
:1041A800B868FEF78FF90346664A1360654B1B68CB
:1041B8003B61644BB3F8AC3023F400639AB2614BB3
:1041C800A3F8AC2002E05F4B1B683B615D4B93F8A2
:1041D800A330002B06D15B4BB3F8AC3003F48073EB
:1041E800002B0AD0574BD3F8A4303A69D31A002BC6
:1041F80003DA544BD3F8A4303B61524BB3F8AC30DC
:1042080003F00203002B17D0FB79002B01D04E4A94
:1042180000E04E4A3B691A447B69D31A002B0BDD38
:104228007B6903F5843303F5807310211846FDF785
:1042380023FF00233B619BE0BB6840333A69D31AF4
:10424800002B70DABB683B613E4B93F8B030FB73D0
:10425800FB79002B1DD03B4BB3F8AC3003F02003A7
:10426800002B0CD0374B93F8B220FB7B1146184635
:10427800FDF710FA0346FB73C023BB7301E000236C
:10428800BB73BB7B1846FFF76BFC2E4B304ADA61D9
:104298001DE02C4BD3F8183113F1810F07D900BF5B
:1042A80000E000BF2B492C4800F044FEDFE0254B1E
:1042B80093F84431002B05D1224BD3F81C31B3F1CC
:1042C800FF3FEED0FFF7BAF91E4B244ADA61FB7BB9
:1042D8001846FDF78BF903461A461A4B93F8B13086
:1042E80019461046FDF71DF903461A46154BDA81A3
:1042F800144AFB7B5374134BB3F8AC301BB223F452
:1043080019631BB243F408631BB29AB20D4BA3F8AE
:10431800AC203869FEF78CF81120FEF73DFA012031
:1043280001F0EAFBA3E0074BB3F8AC3003F002035B
:10433800002B00F08C803B69002B19D13B690133BD
:104348003B6115E0380100200065040000EE020022
:1043580005350008BF2700084C0100201536000865
:10436800444BB3F8AC3003F00203002B7ED000BFFF
:10437800404BB3F8AC3003F40073002B41D0BB685A
:10438800403319463C48FDF7EBFD0346002B38D077
:104398003B69002B06D0374BD3F83C313A69D31A26
:1043A800002B56DB334B93F83721324B1A74314BC1
:1043B800D3F83C312F4A53602E4BD3F840312D4A65
:1043C80093602C4B93F834311846FDF721F90346D6
:1043D8001A46284BDA81274B002283F84721254BC0
:1043E8005A68BB68D31A13F1400F01DAFDF75EF87B
:1043F800204B5B68403B214A1946214800F0C0FD2C
:1044080035E03B69002B04D03A697B69D31A002B4D
:1044180021DBFEF7F3F8174B93F88921154B1A7433
:10442800144BD3F88C31134A5360BA687B69D31A9A
:10443800002B06DB0F4B134ADA61022001F05CFB0C
:1044480015E0114A79690E4800F09AFD0FE000BFA7
:1044580002E000BF00E000BF3B69403B0B4A194641
:10446800074800F08DFD02E000BF00E000BF1837EC
:10447800BD4680BD380100206C020020E1400008E4
:104488004C010020A53E0008BD4000088D2700080B
:1044980080B582B000AF03460A46FB711346BB7174
:1044A80097F90620FB7919460020FDF727FE00BF83
:1044B8000837BD4680BD000098B500AF002001F068
:1044C8001BFB214800F018FD4FF4D67200211F484D
:1044D80004F0C4FE1D4B0022C3F8142101F010FAA9
:1044E80003461B021CB201F00BFA03461BB223431E
:1044F8001BB29AB2154BA3F8F220144B0022A3F872
:10450800AC20124B002283F8B120104B802283F894
:1045180027210E4B002283F82B210C4B0C4AC3F8A1
:104528002C210A4B012283F82321084B084AC3F89F
:104538004021064B032283F83421044BFF2283F8E1
:10454800352100BF98BD00BF4C0100203801002074
:1045580008E6D33380B400AF044B4022A3F8AC2064
:1045680000BFBD465DF8047B704700BF38010020DE
:1045780080B500AF0B4BB3F8AC3043F008039AB2E8
:10458800084BA3F8AC20074BB3F8AC3003F0040396
:10459800002B03D1034B002283F84421FFF7AEFD23
:1045A80000BF80BD3801002080B582B000AF3960FF
:1045B80011461A460346FB710B46BB7113467B71C5
:1045C800BB79342B02D96FF0010317E03B68002B4D
:1045D80005D0BB791A4639680A4804F031FE0A4A00
:1045E8007B7982F8BB30084AFB7982F8BA30064AF0
:1045F800BB7982F8BC30FFF7BBFF002318460837A9
:10460800BD4680BDF50100203801002090B585B079
:1046180000AFF860B9607A603B601F4AFB68C2F877
:10462800A8301D4ABB68C2F814317B68002B09D03A
:10463800194B7A6803F1F4041346186859689A68A4
:10464800DB680FC43B68002B09D0134B3A6803F5AD
:1046580082741346186859689A68DB680FC400208A
:10466800FDF77AFD0C4BB3F8AC3023F4297323F033
:1046780002039AB2084BA3F8AC20074BB3F8AC304E
:1046880043F400639AB2044BA3F8AC20FEF7A2F8F7
:1046980000BF1437BD4690BD3801002080B483B0F8
:1046A80000AF0346FB710A4B002283F82221FB79F5
:1046B800002B02D06FF00B0201E06FF07F02044B79
:1046C80083F8212100BF0C37BD465DF8047B704795
:1046D8003801002080B483B000AF78607B68064959
:1046E8001A460B4603CB1060516000BF0C37BD461D
:1046F8005DF8047B704700BF54A8000880B483B0FD
:1047080000AF78607B6806491A460B4603CB1060F9
:10471800516000BF0C37BD465DF8047B704700BF91
:104728005CA80008B0B483B000AF78607B68064A24
:104738001C4615460FCD20606160A260E36000BF93
:104748000C37BD46B0BC704764A8000880B400AF01
:1047580000BFBD465DF8047B704780B483B000AFEE
:10476800DC23FB80FB8818460C37BD465DF8047BCC
:104778007047000080B584B000AF7860FFF7EDFFA8
:104788000346FB81FB8919461048FCF7C3FC104B14
:10479800002283F84821FB89DAB20D4B83F84921BE
:1047A800002302220B490120FFF7FEFE00F07EFBEA
:1047B800034603F56A1303F5C053074A1946786898
:1047C80000F0DEFB00BF1037BD4680BDAC9300088B
:1047D80038010020800200207D47000890B58BB08A
:1047E80000AF7860FFF7B2FFFFF766FEFFF7FAF950
:1047F800304B07F118040FCB84E80F002E4B07F15C
:1048080008040FCB84E80F002C4907F1180307F1BF
:1048180008020120FFF7FAFE01233F222849002061
:10482800FDF720FD01237F2226490120FDF71AFD0F
:1048380001233F2224490220FDF714FD01233F22D2
:1048480022490320FDF70EFD01233F2220490420C1
:10485800FDF708FD01233F221E490520FDF702FD53
:1048680001233F221C490620FDF7FCFC01233F22BF
:104878001A490720FDF7F6FC002380221849082072
:10488800FDF7F0FC0020FFF709FF164B032283F821
:104898002B210E210520FFF7FBFD00F007FB034647
:1048A800114A1946786800F06BFB00BF2C37BD46EB
:1048B80090BD00BF84A8000874A80008A4170126AA
:1048C800A027BE33E034C1332042C43360E5AE33A1
:1048D800A0F2B133E0FFB433200DB833601ABB3314
:1048E80000D6C833380100207D47000880B582B063
:1048F80000AF0346FB71FB791846FCF721FCFB79F6
:10490800013B0E2B79D801A252F823F06F49000819
:10491800774900087F49000887490008514900087D
:10492800594900088F490008674900089749000855
:104938009F490008DB490008E3490008EB490008E3
:10494800F3490008FB4900083048FCF7CEFB59E062
:104958000120FCF767FB2E48FFF70CFF52E02D48BB
:10496800FCF7C3FB4EE02C48FCF7BFFB4AE02B48A2
:10497800FCF7BBFB46E02A48FCF7B7FB42E02948B6
:10498800FCF7B3FB3EE02848FCF7AFFB3AE02748CA
:10499800FCF7ABFB36E02648FCF7A7FB254B93F862
:1049A80045315BB2002B02DA2348FCF79EFB214B12
:1049B80093F84731002B24D02048FCF796FB1D4B79
:1049C80093F847311846FCF790FB1D48FCF78DFB20
:1049D80017E01C48FCF789FB14E01B48FCF785FB33
:1049E80010E01A48FCF781FB0CE01948FCF77DFB46
:1049F80008E01848FCF779FB04E01748FCF775FB5A
:104A080000E000BF00BF0837BD4680BDB493000872
:104A1800C8030020C4930008D4930008E893000852
:104A2800FC930008109400082494000830940008AF
:104A380044940008380100207894000888940008FD
:104A480094940008A8940008B8940008C494000836
:104A5800D4940008E4940008F494000880B584B065
:104A680000AF01F0D9F900F029F800F047F900F09B
:104A78008DF800F0C1F800F017F90D4803F026F89A
:104A88000C4B1B681A680B4B1B6842F040021A60FB
:104A980000F0FAF9FCF7BAFA3B1D0749184600F08E
:104AA80049FA00F0A3FA002318461037BD4680BD26
:104AB8003C030020E4020020E547000880B594B0DC
:104AC80000AF07F1200330220021184604F0C6FB8E
:104AD80007F10C0300221A605A609A60DA601A61C2
:104AE8000023BB60274B1B6C264A43F0805313649A
:104AF800244B1B6C03F08053BB60BB6800237B60B6
:104B0800214B1B68204A43F4404313601E4B1B682B
:104B180003F440437B607B6802233B620123FB6212
:104B280010233B630223BB630023FB6308233B641E
:104B380048237B640223BB640423FB6407F120033E
:104B4800184601F0FFFD0346002B01D000F08CF958
:104B58000F23FB6002233B6100237B614FF48053EA
:104B6800BB610023FB6107F10C030221184602F028
:104B780011F90346002B01D000F076F900BF503739
:104B8800BD4680BD003802400070004080B500AFCF
:104B9800174B184A1A60164B4FF482725A60144B1E
:104BA80000229A60124B0022DA60114B00221A612F
:104BB8000F4B00225A610E4B4FF400729A610C4B56
:104BC8002822DA610A4B00221A62094B00225A6233
:104BD800074B00229A62064B0A22DA62044802F066
:104BE80061FB0346002B01D000F03EF900BF80BDF9
:104BF800E40200200030014080B58AB000AF07F120
:104C0800200300221A605A603B1D00221A605A6075
:104C18009A60DA601A615A619A61214B214A1A60D6
:104C28001F4B40F6C9025A601D4B00229A601C4B6C
:104C38004FF6FE72DA601A4B00221A61184B0022F6
:104C48009A61174802F0D4FF0346002B01D000F008
:104C58000BF900233B6200237B6207F1200319460E
:104C68000F4803F087FD0346002B01D000F0FCF845
:104C780000237B600023BB600023FB6000237B6173
:104C88003B1D00221946064803F080F90346002B15
:104C980001D000F0E9F800BF2837BD4680BD00BF4D
:104CA8003C0300200008004080B500AF114B124AB9
:104CB8001A60104B4FF4E1325A600E4B00229A6092
:104CC8000C4B0022DA600B4B00221A61094B0C22B4
:104CD8005A61084B00229A61064B0022DA610548A6
:104CE80003F01AFE0346002B01D000F0BDF800BF08
:104CF80080BD00BF840300200010014080B58AB049
:104D080000AF07F1140300221A605A609A60DA6053
:104D18001A6100233B61504B1B6B4F4A43F004035D
:104D280013634D4B1B6B03F004033B613B6900238A
:104D3800FB60494B1B6B484A43F080031363464BA7
:104D48001B6B03F08003FB60FB680023BB60424BD6
:104D58001B6B414A43F0010313633F4B1B6B03F08A
:104D68000103BB60BB6800237B603B4B1B6B3A4A6B
:104D780043F002031363384B1B6B03F002037B60A1
:104D88007B6800224FF40051344801F091FC002266
:104D98000421334801F08CFC00220121314801F044
:104DA80087FC4FF400537B610123BB610023FB6147
:104DB80000233B6207F114031946284801F0DEF985
:104DC80004237B610123BB610023FB6100233B6259
:104DD80007F114031946224801F0D0F901237B6139
:104DE8000123BB610023FB6100233B6207F114032D
:104DF80019461C4801F0C2F940F202437B614FF4A6
:104E08008813BB610023FB6107F114031946154899
:104E180001F0B4F94FF400637B614FF48813BB6170
:104E28000023FB6107F1140319460D4801F0A6F9A8
:104E380000220021072001F051F9072001F07AF93A
:104E480000220021282001F049F9282001F072F9F8
:104E580000BF2837BD4680BD003802400008024028
:104E6800000002400004024080B400AF72B600BFE8
:104E7800FEE780B483B000AF7860396000BF0C37BC
:104E8800BD465DF8047B704780B500AF082200215D
:104E9800054804F0E3F9FCF7F3FA00F0BDFCFFF76E
:104EA80059FB00BF80BD00BFD403002080B500AF10
:104EB800FCF704FA0346184680BD80B483B000AFFF
:104EC800786039600DE07B681B683A689A4205D1C2
:104ED8003B681A687B681A60012307E07B681B68D7
:104EE8007B607B681B68002BEDD1002318460C37CC
:104EF800BD465DF8047B704780B582B000AF78602E
:104F0800FCF792FA79680948FFF7D7FF0346002BA8
:104F180005D179680648FFF7D0FF0346002BFCF758
:104F280093FA00BF0837BD4680BD00BFD4030020F8
:104F3800D803002080B584B000AF78603960FCF7F2
:104F480073FA79680D48FFF7B8FF7B683A689A608A
:104F58007B6800221A60094BFB6002E0FB681B6853
:104F6800FB60FB681B68002BF8D1FB687A681A6045
:104F7800FCF76AFA00BF1037BD4680BDD803002091
:104F880080B586B000AFF860B9607A60FCF74CFA7B
:104F9800F9681548FFF791FFFB68BA685A60FB6823
:104FA8007A689A60FB6800221A600F4B7B610EE0FA
:104FB8007B691B685A68BB68D31A002B04DD7B69C0
:104FC8001A68FB681A6006E07B691B687B617B696D
:104FD8001B68002BECD17B69FA681A60FCF734FA7D
:104FE80000BF1837BD4680BDD403002080B582B00D
:104FF80000AF00237B60FCF717FA164B5B68002BA9
:1050080007D0144B5B687B607B681B68114A536050
:1050180016E0104B1B68002B10D00E4B1B685B680A
:105028001846FCF7A9F90346002B07D0094B1B6863
:105038007B607B681B68074A136001E0FCF718FA7D
:10504800FCF702FA7B68002BD3D07B689B687868F2
:105058009847CEE7D403002080B582B000AF03465E
:105068000A46FB711346BB710020FCF799F8FB79DF
:1050780063F07F03DBB21846FCF7FAF8BB791846F1
:10508800FCF7F6F80120FCF78BF800BF0837BD469F
:1050980080BD80B584B000AF0346FB710020FCF7EB
:1050A8007FF8FB7903F07F03DBB21846FCF7E0F8E2
:1050B8000020FCF7DDF80346FB730120FCF770F8CD
:1050C800FB7B18461037BD4680BD80B584B000AF65
:1050D80003463960FB711346BB710020FCF760F88A
:1050E800FB7963F07F03DBB21846FCF7C1F80023B5
:1050F800FB7309E0FB7B3A6813441B781846FCF7FE
:10510800B7F8FB7B0133FB73FA7BBB799A42F1D387
:105118000120FCF745F800BF1037BD4680BD90B5AB
:1051280085B000AF03463960FB711346BB710020A0
:10513800FCF736F8FB7903F07F03DBB21846FCF77F
:1051480097F80023FB730AE0FB7B3A68D418002029
:10515800FCF78EF803462370FB7B0133FB73FA7B65
:10516800BB799A42F0D30120FCF71AF800BF143734
:10517800BD4690BD80B582B000AF0346FB710120EB
:10518800FFF787FF03465BB223F007035AB297F98C
:10519800073013435BB2DBB219460120FFF75CFF0F
:1051A80000BF0837BD4680BD80B582B000AF802300
:1051B800FB71FB7943F00803FB71FB791946012069
:1051C800FFF74AFF00BF0837BD4680BD80B582B0F3
:1051D80000AF0023FB71FB7943F00803FB71FB79F7
:1051E80019460120FFF738FF00BF0837BD4680BDCC
:1051F80080B582B000AF544BDB891846FCF75DF9E7
:1052080003463B710023FB710023BB7100237B71B4
:105218004D4BDB891846FCF760F90346022B10D08A
:10522800022B13DC002B02D0012B05D00EE0FB79FA
:1052380043F07003FB710BE0FB7963F07F03FB71B4
:1052480006E0FB7963F06F03FB7101E0FCF72EF9D0
:105258003D4BDB891846FCF752F90346032B1FD850
:1052680001A252F823F000BF815200088B520008B7
:10527800955200089F520008FB7943F00203FB7126
:1052880010E0FB7943F00403FB710BE0FB7943F07A
:105298000603FB7106E0FB7943F00803FB7101E0AC
:1052A800FCF704F9284BDB891846FCF77AF9034622
:1052B800002B0ED0FB7943F00103FB71224BDB89F5
:1052C8001846FCF76EF90346DBB219462220FFF7B1
:1052D800C3FEFB7919461D20FFF7BEFE3B79013B53
:1052E800DBB21B01DBB27033BB71174BDB8918468D
:1052F800FCF730F90346002B03D1BB7943F00403D4
:10530800BB71BB7919461E20FFF7A6FE04237B71EB
:105318003B79052B02D03B79062B0BD10A4BDB8955
:105328001846FCF7DAF80346002B03D17B7943F0E3
:1053380008037B717B7919462620FFF78DFE00BF95
:105348000837BD4680BD00BF38010020B0B582B027
:1053580000AF1B4CA468002522462B46510BD004F5
:10536800184A4FF00003FAF783FF02460B46C7E9D5
:105378000023D7E900014FF000024FF00003020CB0
:1053880042EA01420B0CD3B219460620FFF764FE2D
:10539800D7E900014FF000024FF00003020A42EA89
:1053A80001620B0AD3B219460720FFF755FE3B7876
:1053B80019460820FFF750FE00BF0837BD46B0BDAC
:1053C800380100200048E80180B582B000AF154BD5
:1053D8009B7CFB7197F90730102B02DD0F23FB71C3
:1053E80005E097F90730012B01DC0223FB71FB79FB
:1053F80003F00F035BB263F07F035BB2DBB21946C5
:105408000920FFF729FE5A20FFF743FE034643F021
:105418000403DBB219465A20FFF71EFE00BF083707
:10542800BD4680BD3801002080B500AF10210120A5
:10543800FFF712FE0120FFF72CFE0346102B01D0C8
:10544800FCF734F80120FFF795FE02210220FFF750
:1054580003FE80210320FFF7FFFD01210420FFF751
:10546800FBFD99210520FFF7F7FD00212520FFF717
:10547800F3FD05212620FFF7EFFD12212720FFF776
:10548800EBFDD0213020FFF7E7FD40213120FFF769
:10549800E3FDC1212820FFF7DFFD94212920FFF734
:1054A800DBFDC1212A20FFF7D7FDFFF74FFFFFF7EC
:1054B8008BFF34214020FFF7CFFD104B93F8473185
:1054C8000133DBB219463220FFF7C6FD0B4B93F8C8
:1054D800473119460020FFF7BFFD084B93F84731C5
:1054E8001A4607490020FFF7F0FD0120FBF74DFEA3
:1054F8000320FFF73FFE00BF80BD00BF380100203A
:105508008002002080B500AFFFF74EFE0120FFF7B4
:10551800C0FD03465BB2002B01DBFBF7C7FF012090
:10552800FFF728FEFFF764FEFFF710FF0A20FFF7DA
:10553800B0FD03465BB223F00F035BB243F00803F0
:105548005BB2DBB219460A20FFF786FDFFF73CFF86
:1055580034213920FFF780FDF0214020FFF77CFD42
:10556800FF211220FFF778FDF7211120FFF774FDC6
:1055780000210E20FFF770FD00210D20FFF76CFDC4
:105588000B4B93F8473119462220FFF765FD084B6E
:1055980093F847311A4607490020FFF796FD012086
:1055A800FBF7F3FD0320FFF7E5FD00BF80BD00BF5B
:1055B800380100208002002080B500AF0120FFF7ED
:1055C80068FD034603F00703002B01D0FBF76EFFCD
:1055D800074BDB891846FBF770FF0346002B02D107
:1055E800FFF722FF01E0FFF78DFF00BF80BD00BF7E
:1055F8003801002080B582B000AF0346FB71FFF789
:10560800D3FD0120FFF745FD03465BB2002B01DB0C
:10561800FBF74CFF0120FFF7ADFDFB79022B08D10A
:105628000A211D20FFF718FD70211E20FFF714FD29
:1056380003E0FFF7DDFDFFF789FE21210C20FFF7CE
:105648000BFD40212320FFF707FD264B93F8A831D7
:10565800002B0BD03320FFF71CFD034623F040033B
:10566800DBB219463320FFF7F7FC0AE03320FFF7D7
:1056780010FD034643F04003DBB219463320FFF721
:10568800EBFC184B1B7C19461F20FFF7E5FC342167
:105698003920FFF7E1FCC0214020FFF7DDFCFF21A6
:1056A8001220FFF7D9FCFB790F4AD35CDB43DBB24E
:1056B80019461120FFF7D0FC0020FBF766FDFB79A7
:1056C800002B08D1074B5B681846FBF744FE062001
:1056D800FFF750FD02E00520FFF74CFD00BF08373B
:1056E800BD4680BD3801002094A8000880B582B06E
:1056F80000AF0346FB71FB79002B01D0FBF7D6FE08
:10570800FFF764FD0120FFF7C4FC03465BB2002BE2
:1057180001DAFBF7CBFE0120FFF72CFDFFF716FEA1
:1057280021210C20FFF798FC1E210D20FFF794FC87
:105738000B211220FFF790FC12211320FFF78CFC9D
:10574800AA211F20FFF788FC12212720FFF784FCDD
:10575800D8213020FFF780FC40213120FFF77CFC66
:10576800C1212820FFF778FC94212920FFF774FC39
:10577800C1212A20FFF770FCFF212120FFF76CFCD4
:1057880002210220FFF768FC80210320FFF764FC58
:1057980001210420FFF760FC99210520FFF75CFC3C
:1057A80038214020FFF758FC0020FBF7EEFC064BA1
:1057B8005B681846FBF7CFFD0520FFF7DBFC00BF51
:1057C8000837BD4680BD00BF3801002080B582B0D3
:1057D80000AF0346FB710120FFF75BFC034603F0B3
:1057E8000703002B01D0FBF761FE0A4BDB89184643
:1057F800FBF763FE0346002B04D1FB791846FFF73D
:1058080075FF03E0FB791846FFF7F4FE00BF083781
:10581800BD4680BD3801002090B585B000AFFBF7CC
:1058280003FE0020FBF7CEFCFFF740FB03462033C6
:105838001846FBF790FD0220FBF7C4FCFFF736FB88
:105848000346A0331846FBF786FD0020FFF792FCBD
:105858004220FFF71EFC0346FB71FB79122B01D097
:10586800FBF724FE0220FFF7C5FE00BF0120FFF76B
:1058780010FC034603F00703052BF7D10123FB6057
:105888002CE00023BB6023E000BF2C20FFF701FCC5
:10589800034603F00103BB71BC792C20FFF7F9FB29
:1058A800034603F001039C42EFD0144AFB681344FB
:1058B8001B785B005AB297F9063013435BB2D9B232
:1058C8000E4AFB6813440A461A70BB680133BB6072
:1058D800BB68072BD8DDFB680133FB60FB680F2B27
:1058E800CFDD064B10221A700020FFF743FCFBF7B0
:1058F800ABFD00BF1437BD4690BD00BFDC030020E0
:1059080080B582B000AF104B1B78FB71FB79002B80
:1059180001D1FBF7CBFDFB79102B06D110220A49E8
:105928000020FAF7A3FE0023FB71FB795A1CFA71D9
:105938001A46054B9B5CBB71034AFB791370BB7914
:1059480018460837BD4680BDDC03002080B584B00A
:1059580000AF0346FB71FFF7A9FAF8600120FFF7D3
:1059680098FB03465BB2002B74DA1220FFF791FB19
:1059780003467B727B7A03F00803002B04D0FB6894
:10598800013B594A13605CE07B7A03F04003002B2B
:105998004FD0554BDB891846FBF79FFD0346002B7C
:1059A8000DD1514BDB891846FBF787FD03461A4694
:1059B8004E4B33F812301A46FB689B1AFB604A4A72
:1059C800FB6853601D20FFF764FB034603F00403E4
:1059D800002B05D02220FFF75CFB03461A4604E0A3
:1059E8001320FFF756FB03461A463F4B83F847211F
:1059F8001020FFF74EFB034619460D20FFF72CFB3E
:105A0800394B93F847311A4639490020FFF787FB8D
:105A18001920FFF73EFB03465AB2334B5A731A203C
:105A2800FFF737FB03463D3BDBB25AB22E4B1A73E6
:105A380007E097F90930002B03DA2B4B002283F893
:105A48004721FF211120FFF707FBFF211220FFF755
:105A580003FB3CE03E20FFF71CFB0346FB723F20A4
:105A6800FFF717FB0346BB72BB7A03F00803002B52
:105A780003D01D4AFB68136029E0BB7A03F00403D6
:105A8800002B19D0184AFB6853603220FFF701FB3E
:105A980003461A46144B83F84721134B93F84731B2
:105AA8001A4613490020FFF73AFB0F4B00225A739E
:105AB8000D4B00221A730AE0FB7A03F00403002B53
:105AC80004D0094B002283F8472100E0FEE70020BC
